{
  "_format": "hh-sol-artifact-1",
  "contractName": "UsersPublicHashes",
  "sourceName": "contracts/UsersPublicHashes.sol",
  "abi": [
    {
      "inputs": [
        {
          "internalType": "uint256",
          "name": "hash",
          "type": "uint256"
        }
      ],
      "name": "addUserHash",
      "outputs": [
        {
          "internalType": "bool",
          "name": "",
          "type": "bool"
        }
      ],
      "stateMutability": "nonpayable",
      "type": "function"
    },
    {
      "inputs": [],
      "name": "getUserHash",
      "outputs": [
        {
          "internalType": "uint256",
          "name": "",
          "type": "uint256"
        }
      ],
      "stateMutability": "view",
      "type": "function"
    }
  ],
  "bytecode": "0x608060405234801561001057600080fd5b506104a7806100206000396000f3fe608060405234801561001057600080fd5b50600436106100365760003560e01c80638677b4e21461003b578063d621d1f814610059575b600080fd5b610043610089565b60405161005091906102b3565b60405180910390f35b610073600480360381019061006e91906102ff565b610160565b6040516100809190610347565b60405180910390f35b60008060003373ffffffffffffffffffffffffffffffffffffffff1673ffffffffffffffffffffffffffffffffffffffff16815260200190815260200160002060010160009054906101000a900460ff16610119576040517f08c379a0000000000000000000000000000000000000000000000000000000008152600401610110906103e5565b60405180910390fd5b6000803373ffffffffffffffffffffffffffffffffffffffff1673ffffffffffffffffffffffffffffffffffffffff16815260200190815260200160002060000154905090565b60008060003373ffffffffffffffffffffffffffffffffffffffff1673ffffffffffffffffffffffffffffffffffffffff16815260200190815260200160002060010160009054906101000a900460ff16156101f1576040517f08c379a00000000000000000000000000000000000000000000000000000000081526004016101e890610451565b60405180910390fd5b60016000803373ffffffffffffffffffffffffffffffffffffffff1673ffffffffffffffffffffffffffffffffffffffff16815260200190815260200160002060010160006101000a81548160ff021916908315150217905550816000803373ffffffffffffffffffffffffffffffffffffffff1673ffffffffffffffffffffffffffffffffffffffff1681526020019081526020016000206000018190555060019050919050565b6000819050919050565b6102ad8161029a565b82525050565b60006020820190506102c860008301846102a4565b92915050565b600080fd5b6102dc8161029a565b81146102e757600080fd5b50565b6000813590506102f9816102d3565b92915050565b600060208284031215610315576103146102ce565b5b6000610323848285016102ea565b91505092915050565b60008115159050919050565b6103418161032c565b82525050565b600060208201905061035c6000830184610338565b92915050565b600082825260208201905092915050565b7f54686973207573657220646f65736e27742065786973742e205369676e20757060008201527f2066697273740000000000000000000000000000000000000000000000000000602082015250565b60006103cf602683610362565b91506103da82610373565b604082019050919050565b600060208201905081810360008301526103fe816103c2565b9050919050565b7f54686973207573657220616c7265616479206578697374730000000000000000600082015250565b600061043b601883610362565b915061044682610405565b602082019050919050565b6000602082019050818103600083015261046a8161042e565b905091905056fea26469706673582212206f7db30315925d80743478a6fe353e61cd16fe74da5122f5822971b8d92a2d9d64736f6c63430008110033",
  "linkReferences": {},
  "deployedLinkReferences": {}
}